{
  "contractName": "Auction",
  "abi": [
    {
      "inputs": [],
      "stateMutability": "nonpayable",
      "type": "constructor"
    },
    {
      "anonymous": false,
      "inputs": [
        {
          "indexed": false,
          "internalType": "address",
          "name": "bidder",
          "type": "address"
        },
        {
          "indexed": false,
          "internalType": "uint256",
          "name": "amount",
          "type": "uint256"
        }
      ],
      "name": "HighestBidIncreased",
      "type": "event"
    },
    {
      "inputs": [],
      "name": "highestBid",
      "outputs": [
        {
          "internalType": "uint256",
          "name": "",
          "type": "uint256"
        }
      ],
      "stateMutability": "view",
      "type": "function",
      "constant": true
    },
    {
      "inputs": [],
      "name": "highestBidder",
      "outputs": [
        {
          "internalType": "address",
          "name": "",
          "type": "address"
        }
      ],
      "stateMutability": "view",
      "type": "function",
      "constant": true
    },
    {
      "inputs": [
        {
          "internalType": "address",
          "name": "",
          "type": "address"
        }
      ],
      "name": "userBalances",
      "outputs": [
        {
          "internalType": "uint256",
          "name": "",
          "type": "uint256"
        }
      ],
      "stateMutability": "view",
      "type": "function",
      "constant": true
    },
    {
      "stateMutability": "payable",
      "type": "receive",
      "payable": true
    },
    {
      "inputs": [],
      "name": "getHighestBidder",
      "outputs": [
        {
          "internalType": "address",
          "name": "",
          "type": "address"
        }
      ],
      "stateMutability": "view",
      "type": "function",
      "constant": true
    },
    {
      "inputs": [],
      "name": "getHighestBid",
      "outputs": [
        {
          "internalType": "uint256",
          "name": "",
          "type": "uint256"
        }
      ],
      "stateMutability": "view",
      "type": "function",
      "constant": true
    },
    {
      "inputs": [
        {
          "internalType": "address",
          "name": "addr",
          "type": "address"
        }
      ],
      "name": "isBidder",
      "outputs": [
        {
          "internalType": "bool",
          "name": "",
          "type": "bool"
        }
      ],
      "stateMutability": "view",
      "type": "function",
      "constant": true
    },
    {
      "inputs": [],
      "name": "bid",
      "outputs": [],
      "stateMutability": "payable",
      "type": "function",
      "payable": true
    },
    {
      "inputs": [],
      "name": "withdraw",
      "outputs": [],
      "stateMutability": "nonpayable",
      "type": "function"
    },
    {
      "inputs": [],
      "name": "getContractBalance",
      "outputs": [
        {
          "internalType": "uint256",
          "name": "",
          "type": "uint256"
        }
      ],
      "stateMutability": "view",
      "type": "function",
      "constant": true
    },
    {
      "inputs": [
        {
          "internalType": "address",
          "name": "_bidder",
          "type": "address"
        }
      ],
      "name": "getBidderBalance",
      "outputs": [
        {
          "internalType": "uint256",
          "name": "",
          "type": "uint256"
        }
      ],
      "stateMutability": "view",
      "type": "function",
      "constant": true
    }
  ],
  "bytecode": "0x608060405234801561001057600080fd5b5033600160006101000a81548173ffffffffffffffffffffffffffffffffffffffff021916908373ffffffffffffffffffffffffffffffffffffffff160217905550336000806101000a81548173ffffffffffffffffffffffffffffffffffffffff021916908373ffffffffffffffffffffffffffffffffffffffff1602179055506000600281905550610a3f806100a96000396000f3fe6080604052600436106100945760003560e01c80634979440a116100595780634979440a146101665780636f9fb98a1461019157806391f90157146101bc5780639bb7307c146101e7578063d57bde79146102245761009b565b80623495a4146100a05780631998aeef146100cb57806319fde1f6146100d557806326224c64146101125780633ccfd60b1461014f5761009b565b3661009b57005b600080fd5b3480156100ac57600080fd5b506100b561024f565b6040516100c29190610799565b60405180910390f35b6100d3610278565b005b3480156100e157600080fd5b506100fc60048036038101906100f791906106da565b6103e0565b60405161010991906107dd565b60405180910390f35b34801561011e57600080fd5b50610139600480360381019061013491906106da565b61042c565b6040516101469190610858565b60405180910390f35b34801561015b57600080fd5b50610164610444565b005b34801561017257600080fd5b5061017b610668565b6040516101889190610858565b60405180910390f35b34801561019d57600080fd5b506101a6610672565b6040516101b39190610858565b60405180910390f35b3480156101c857600080fd5b506101d161067a565b6040516101de9190610799565b60405180910390f35b3480156101f357600080fd5b5061020e600480360381019061020991906106da565b61069e565b60405161021b9190610858565b60405180910390f35b34801561023057600080fd5b506102396106bf565b6040516102469190610858565b60405180910390f35b60008060009054906101000a900473ffffffffffffffffffffffffffffffffffffffff16905090565b6002543411156103de576000600254141561030757600254600360008060009054906101000a900473ffffffffffffffffffffffffffffffffffffffff1673ffffffffffffffffffffffffffffffffffffffff1673ffffffffffffffffffffffffffffffffffffffff16815260200190815260200160002060008282546102ff9190610884565b925050819055505b336000806101000a81548173ffffffffffffffffffffffffffffffffffffffff021916908373ffffffffffffffffffffffffffffffffffffffff1602179055503460028190555034600360003373ffffffffffffffffffffffffffffffffffffffff1673ffffffffffffffffffffffffffffffffffffffff168152602001908152602001600020600082825461039d9190610884565b925050819055507ff4757a49b326036464bec6fe419a4ae38c8a02ce3e68bf0809674f6aab8ad30033346040516103d59291906107b4565b60405180910390a15b565b600080600360008473ffffffffffffffffffffffffffffffffffffffff1673ffffffffffffffffffffffffffffffffffffffff1681526020019081526020016000205414159050919050565b60036020528060005260406000206000915090505481565b61044d336103e0565b61048c576040517f08c379a0000000000000000000000000000000000000000000000000000000008152600401610483906107f8565b60405180910390fd5b6000600360003373ffffffffffffffffffffffffffffffffffffffff1673ffffffffffffffffffffffffffffffffffffffff16815260200190815260200160002054905060008111610513576040517f08c379a000000000000000000000000000000000000000000000000000000000815260040161050a90610838565b60405180910390fd5b60008054906101000a900473ffffffffffffffffffffffffffffffffffffffff1673ffffffffffffffffffffffffffffffffffffffff163373ffffffffffffffffffffffffffffffffffffffff1614156105a2576040517f08c379a000000000000000000000000000000000000000000000000000000000815260040161059990610818565b60405180910390fd5b6000600360003373ffffffffffffffffffffffffffffffffffffffff1673ffffffffffffffffffffffffffffffffffffffff168152602001908152602001600020819055503373ffffffffffffffffffffffffffffffffffffffff166108fc829081150290604051600060405180830381858888f193505050506106655780600360003373ffffffffffffffffffffffffffffffffffffffff1673ffffffffffffffffffffffffffffffffffffffff168152602001908152602001600020819055505b50565b6000600254905090565b600047905090565b60008054906101000a900473ffffffffffffffffffffffffffffffffffffffff1681565b60008173ffffffffffffffffffffffffffffffffffffffff16319050919050565b60025481565b6000813590506106d4816109f2565b92915050565b6000602082840312156106ec57600080fd5b60006106fa848285016106c5565b91505092915050565b61070c816108da565b82525050565b61071b816108ec565b82525050565b600061072e601c83610873565b915061073982610951565b602082019050919050565b6000610751602783610873565b915061075c8261097a565b604082019050919050565b6000610774601883610873565b915061077f826109c9565b602082019050919050565b61079381610918565b82525050565b60006020820190506107ae6000830184610703565b92915050565b60006040820190506107c96000830185610703565b6107d6602083018461078a565b9392505050565b60006020820190506107f26000830184610712565b92915050565b6000602082019050818103600083015261081181610721565b9050919050565b6000602082019050818103600083015261083181610744565b9050919050565b6000602082019050818103600083015261085181610767565b9050919050565b600060208201905061086d600083018461078a565b92915050565b600082825260208201905092915050565b600061088f82610918565b915061089a83610918565b9250827fffffffffffffffffffffffffffffffffffffffffffffffffffffffffffffffff038211156108cf576108ce610922565b5b828201905092915050565b60006108e5826108f8565b9050919050565b60008115159050919050565b600073ffffffffffffffffffffffffffffffffffffffff82169050919050565b6000819050919050565b7f4e487b7100000000000000000000000000000000000000000000000000000000600052601160045260246000fd5b7f596f752068617665206e6f74206d616465206120626964207965742e00000000600082015250565b7f43616e6e6f742077697468647261772120596f7520617265206869676865737460008201527f4269646465722100000000000000000000000000000000000000000000000000602082015250565b7f4e6f2062696420686173206265656e206d616465207965740000000000000000600082015250565b6109fb816108da565b8114610a0657600080fd5b5056fea26469706673582212202666ed4b9c546dd89250f910020f38295414460755fb5a881f0612340baac50564736f6c63430008030033",
  "immutableReferences": {},
  "source": "pragma solidity >=0.7.0 < 0.9.0;\n\ncontract Auction {\n    \n    address public highestBidder; // The highest bidder's address \n    address owner;\n    uint public highestBid; // The amount of the highest bid \n    \n    function getHighestBidder() public view returns(address){\n        return(highestBidder);\n    }\n    \n    function getHighestBid() public view returns(uint){\n        return highestBid;\n    }\n    \n    mapping(address => uint) public userBalances; // mapping for the amount to return \n    \n    //will be triggered\n    event HighestBidIncreased(address bidder, uint amount);\n    \n    constructor() public {\n    // contractor \n    // 1. Initialize highest bid and the bidder's address\n        owner = msg.sender;\n        highestBidder = msg.sender;\n        highestBid = 0;\n    }\n    \n    modifier onlyBidder() { // Modifier\n        require(isBidder(msg.sender), \"You have not made a bid yet.\");\n        _;\n    }\n    \n    \n    \n    function isBidder(address addr) public view returns(bool){\n        return(userBalances[addr]!=0);\n    }\n    \n    function bid() public payable{ \n    // Function to process bid\n    // 1. Check if the bid is greater than the current highest bid \n    // 2. Update status variable and the amount to return\n    \n    //check if bid higher \n        if (msg.value > highestBid) {\n            // Saving the amount the previous bidder can withdraw now,\n            //since a higher bid has been found\n\t    if(highestBid == 0){\n                userBalances[highestBidder] += highestBid;\n\t    }\n            highestBidder = msg.sender;\n            highestBid = msg.value;\n            userBalances[msg.sender] += msg.value;\n            emit HighestBidIncreased(msg.sender, msg.value);\n        }\n        \n    \n    } \n    function withdraw() public onlyBidder{ \n    // Function to withdraw the amount of bid to return \n    // 1. Check if the amount to return is greater than zero \n    // 2. Update status variable and return bid \n        uint b = userBalances[msg.sender];\n        require(b > 0, \"No bid has been made yet\");\n        \n        //if highest bidder withdraws, it should fail\n        require(msg.sender != highestBidder, \"Cannot withdraw! You are highestBidder!\");\n        \n        \n        userBalances[msg.sender] = 0;\n        if(!payable(msg.sender).send(b)){  //canot withdraw, revert changes to userBalances\n            userBalances[msg.sender] = b;            \n        }\n    }\n    \n    function getContractBalance() public view returns(uint){\n        return address(this).balance;\n    }\n    \n     function getBidderBalance(address _bidder) public view returns(uint){\n        return address(_bidder).balance;\n    }\n    \n    receive() external payable {}\n} \n",
  "sourcePath": "/home/cpoulianou/solidity/auctionApp/contracts/Auction.sol",
  "compiler": {
    "name": "solc",
    "version": "0.8.3+commit.8d00100c.Emscripten.clang"
  },
  "schemaVersion": "3.4.1",
  "updatedAt": "2021-05-25T10:42:37.589Z",
  "networkType": "ethereum",
  "devdoc": {
    "kind": "dev",
    "methods": {},
    "version": 1
  },
  "userdoc": {
    "kind": "user",
    "methods": {},
    "version": 1
  }
}